:100000000C9434000C943E000C943E000C943E0082
:100010000C943E000C943E000C943E000C943E0068
:100020000C943E000C943E000C943E000C943E0058
:100030000C943E000C943E000C943E000C943E0048
:100040000C943E000C943E000C943E000C943E0038
:100050000C943E000C943E000C943E000C943E0028
:100060000C943E000C943E0011241FBECFEFD8E04C
:10007000DEBFCDBF0E9440000C94A6000C9400008F
:1000800080EC8AB98CE18BB94B993EC04B9B23C065
:100090004C9956C04C9B3BC04A9955C04A99F4CFE5
:1000A0004B9BF2CF4C9BF0CF5E9A5F9A2FEF81EE85
:1000B00094E0215080409040E1F700C000005E983D
:1000C0005F982FEF81EE94E0215080409040E1F75F
:1000D00000C00000E3CF4C9BDBCF4A9BD9CF5E9A98
:1000E0002FEF81EE94E0215080409040E1F700C076
:1000F00000005E982FEF81EE94E021508040904008
:10010000E1F700C00000C2CF5E985F98C1CF4B9B63
:10011000C3CF4A9BC1CF5F9A2FEF81EE94E021506D
:1001200080409040E1F700C000005F982FEF81EE23
:1001300094E0215080409040E1F700C00000AACF39
:100140005E985F98A9CF5E985F989ECFF894FFCF96
:00000001FF
